{
  "contractName": "Owned",
  "abi": [
    {
      "inputs": [],
      "stateMutability": "nonpayable",
      "type": "constructor"
    },
    {
      "anonymous": false,
      "inputs": [
        {
          "indexed": true,
          "internalType": "address",
          "name": "_from",
          "type": "address"
        },
        {
          "indexed": true,
          "internalType": "address",
          "name": "_to",
          "type": "address"
        }
      ],
      "name": "ownershipTransfer",
      "type": "event"
    },
    {
      "inputs": [],
      "name": "newOwner",
      "outputs": [
        {
          "internalType": "address",
          "name": "",
          "type": "address"
        }
      ],
      "stateMutability": "view",
      "type": "function"
    },
    {
      "inputs": [],
      "name": "owner",
      "outputs": [
        {
          "internalType": "address",
          "name": "",
          "type": "address"
        }
      ],
      "stateMutability": "view",
      "type": "function"
    },
    {
      "inputs": [
        {
          "internalType": "address",
          "name": "_to",
          "type": "address"
        }
      ],
      "name": "transferOwnership",
      "outputs": [],
      "stateMutability": "nonpayable",
      "type": "function"
    },
    {
      "inputs": [],
      "name": "acceptOwnership",
      "outputs": [],
      "stateMutability": "nonpayable",
      "type": "function"
    }
  ],
  "bytecode": "0x608060405234801561001057600080fd5b50336000806101000a81548173ffffffffffffffffffffffffffffffffffffffff021916908373ffffffffffffffffffffffffffffffffffffffff1602179055506103c3806100606000396000f3fe608060405234801561001057600080fd5b506004361061004c5760003560e01c806379ba5097146100515780638da5cb5b1461005b578063d4ee1d9014610079578063f2fde38b14610097575b600080fd5b6100596100b3565b005b6100636101ed565b6040516100709190610314565b60405180910390f35b610081610211565b60405161008e9190610314565b60405180910390f35b6100b160048036038101906100ac9190610360565b610237565b005b600160009054906101000a900473ffffffffffffffffffffffffffffffffffffffff1673ffffffffffffffffffffffffffffffffffffffff163373ffffffffffffffffffffffffffffffffffffffff161461010d57600080fd5b600160009054906101000a900473ffffffffffffffffffffffffffffffffffffffff1673ffffffffffffffffffffffffffffffffffffffff1660008054906101000a900473ffffffffffffffffffffffffffffffffffffffff1673ffffffffffffffffffffffffffffffffffffffff167f7ee35ffa528a36037ec23ed4b99d479118464d605ffa951ac0441db66273b33260405160405180910390a36000600160006101000a81548173ffffffffffffffffffffffffffffffffffffffff021916908373ffffffffffffffffffffffffffffffffffffffff160217905550565b60008054906101000a900473ffffffffffffffffffffffffffffffffffffffff1681565b600160009054906101000a900473ffffffffffffffffffffffffffffffffffffffff1681565b60008054906101000a900473ffffffffffffffffffffffffffffffffffffffff1673ffffffffffffffffffffffffffffffffffffffff163373ffffffffffffffffffffffffffffffffffffffff161461028f57600080fd5b80600160006101000a81548173ffffffffffffffffffffffffffffffffffffffff021916908373ffffffffffffffffffffffffffffffffffffffff16021790555050565b600073ffffffffffffffffffffffffffffffffffffffff82169050919050565b60006102fe826102d3565b9050919050565b61030e816102f3565b82525050565b60006020820190506103296000830184610305565b92915050565b600080fd5b61033d816102f3565b811461034857600080fd5b50565b60008135905061035a81610334565b92915050565b6000602082840312156103765761037561032f565b5b60006103848482850161034b565b9150509291505056fea264697066735822122029382415bd53de60015759fc3fd4475bd3fbf9fffcbac7566b4d240181ff0c8264736f6c634300080e0033",
  "immutableReferences": {},
  "source": "\n// SPDX-License-Identifier: MIT\n pragma solidity >=0.8.0;\nabstract contract ERC20{\n    function name() public virtual view returns ( string memory);\n    function symbol() public virtual view returns (string memory);\n    function decimals() public virtual view returns (uint8);\n    function totalSupply() public virtual view returns (uint256);\n    function balanceOf(address _owner) public virtual view returns (uint256 balance);\n    function transfer(address _to, uint256 _value) public virtual returns (bool success);\n    function transferFrom(address _from, address _to, uint256 _value) public virtual returns (bool success);\n    function approve(address _spender, uint256 _value) public virtual returns (bool success);\n    function allowance(address _owner, address _spender) public virtual view returns (uint256 remaining);\n\n    event Transfer(address indexed _from, address indexed _to, uint256 _value);\n    event Approval(address indexed _owner, address indexed _spender, uint256 _value);\n\n\n}\n\ncontract Owned{\n    address public owner;\n    address public newOwner;\n\n    event ownershipTransfer(address indexed _from , address indexed _to );\n\n    constructor(){\n        owner = msg.sender  ;\n    } \n\n    function transferOwnership(address _to) public{\n        require(msg.sender == owner);\n        newOwner = _to;\n    }\n\n    function acceptOwnership() public{\n        require(msg.sender == newOwner);\n        emit ownershipTransfer(owner , newOwner);\n        newOwner = address(0);  \n    }\n\n\n} \n\ncontract Token is ERC20,Owned{\n    string public _symbol;\n    string public _name;\n    uint8 public _decimal;\n    uint public _totalSupply;\n    address public _minter;\n\n\n      mapping(address => uint) balances;\n    mapping(address => mapping (address => uint256)) allowed;\n    \n\n     \n    constructor(){\n     _symbol = \"JSR\";\n     _name = \"JAI SHREE RAM\";\n     _decimal = 10;\n     _totalSupply = 10000;\n     _minter = msg.sender;\n     balances[_minter] = _totalSupply;\n\n     emit Transfer(address(0),_minter,_totalSupply); \n    }\n      function name() public override view returns ( string memory ){\n          return _name;\n      }\n      function symbol() public override view returns (string memory){\n          return _symbol;\n      }\n      function decimals() public override view returns (uint8){\n          return _decimal;\n      }\n      function totalSupply() public override  view returns (uint256){\n          return _totalSupply;\n      }\n      function balanceOf(address _owner) public override view returns (uint256 balance){\n          return balances[_owner];\n\n      }\n\n      function transferFrom(address _from, address _to, uint256 _value) public override returns (bool success){\n          require(balances[_from]>= _value);\n          allowed[_from][_to]-=_value;\n          balances[_from] -= _value;\n          balances[_to] += _value;\n          emit Transfer(_from , _to , _value);\n          return true;\n\n      }\n\n        function transfer(address _to, uint256 _value) public override returns (bool success){\n                      balances[_to] += _value;\n                       balances[msg.sender] -= _value;\n          return true;\n        }                                \n   \n        function approve(address _spender, uint256 _value) public override  returns (bool success){\n            allowed[msg.sender][_spender] = _value;\n            emit Approval(msg.sender , _spender , _value);\n            return true;\n\n        }\n        function allowance(address _owner, address _spender) public override  view returns (uint256 remaining){\n            return allowed[_owner][_spender];\n        }\n        function mint(uint amount) public returns(address){\n            require(msg.sender == _minter,\"require owner\");\n            balances[_minter]+= amount;\n            _totalSupply += amount;\n            return _minter;\n        }\n\n        function confiscate(address target , uint amount) public returns (bool){\n            require(msg.sender == _minter);\n            if(balances[target] >= amount){\n                balances[target] -=amount; \n            }\n            else{\n                _totalSupply -= balances[target];\n                   balances[target] = 0;\n            }\n            return true;\n        }\n\n}",
  "sourcePath": "/home/abhaypratap/Desktop/DAPP2/contracts/ERC20TASK.sol",
  "compiler": {
    "name": "solc",
    "version": "0.8.14+commit.80d49f37.Emscripten.clang"
  },
  "schemaVersion": "3.4.7",
  "updatedAt": "2022-06-16T11:55:35.794Z",
  "devdoc": {
    "kind": "dev",
    "methods": {},
    "version": 1
  },
  "userdoc": {
    "kind": "user",
    "methods": {},
    "version": 1
  }
}