{
  "contractName": "Token",
  "abi": [
    {
      "inputs": [],
      "stateMutability": "nonpayable",
      "type": "constructor"
    },
    {
      "anonymous": false,
      "inputs": [
        {
          "indexed": true,
          "internalType": "address",
          "name": "_owner",
          "type": "address"
        },
        {
          "indexed": true,
          "internalType": "address",
          "name": "_spender",
          "type": "address"
        },
        {
          "indexed": false,
          "internalType": "uint256",
          "name": "_value",
          "type": "uint256"
        }
      ],
      "name": "Approval",
      "type": "event"
    },
    {
      "anonymous": false,
      "inputs": [
        {
          "indexed": true,
          "internalType": "address",
          "name": "_from",
          "type": "address"
        },
        {
          "indexed": true,
          "internalType": "address",
          "name": "_to",
          "type": "address"
        },
        {
          "indexed": false,
          "internalType": "uint256",
          "name": "_value",
          "type": "uint256"
        }
      ],
      "name": "Transfer",
      "type": "event"
    },
    {
      "anonymous": false,
      "inputs": [
        {
          "indexed": true,
          "internalType": "address",
          "name": "_from",
          "type": "address"
        },
        {
          "indexed": true,
          "internalType": "address",
          "name": "_to",
          "type": "address"
        }
      ],
      "name": "ownershipTransfer",
      "type": "event"
    },
    {
      "inputs": [],
      "name": "_decimal",
      "outputs": [
        {
          "internalType": "uint8",
          "name": "",
          "type": "uint8"
        }
      ],
      "stateMutability": "view",
      "type": "function",
      "constant": true
    },
    {
      "inputs": [],
      "name": "_minter",
      "outputs": [
        {
          "internalType": "address",
          "name": "",
          "type": "address"
        }
      ],
      "stateMutability": "view",
      "type": "function",
      "constant": true
    },
    {
      "inputs": [],
      "name": "_name",
      "outputs": [
        {
          "internalType": "string",
          "name": "",
          "type": "string"
        }
      ],
      "stateMutability": "view",
      "type": "function",
      "constant": true
    },
    {
      "inputs": [],
      "name": "_symbol",
      "outputs": [
        {
          "internalType": "string",
          "name": "",
          "type": "string"
        }
      ],
      "stateMutability": "view",
      "type": "function",
      "constant": true
    },
    {
      "inputs": [],
      "name": "_totalSupply",
      "outputs": [
        {
          "internalType": "uint256",
          "name": "",
          "type": "uint256"
        }
      ],
      "stateMutability": "view",
      "type": "function",
      "constant": true
    },
    {
      "inputs": [],
      "name": "acceptOwnership",
      "outputs": [],
      "stateMutability": "nonpayable",
      "type": "function"
    },
    {
      "inputs": [],
      "name": "newOwner",
      "outputs": [
        {
          "internalType": "address",
          "name": "",
          "type": "address"
        }
      ],
      "stateMutability": "view",
      "type": "function",
      "constant": true
    },
    {
      "inputs": [],
      "name": "owner",
      "outputs": [
        {
          "internalType": "address",
          "name": "",
          "type": "address"
        }
      ],
      "stateMutability": "view",
      "type": "function",
      "constant": true
    },
    {
      "inputs": [
        {
          "internalType": "address",
          "name": "_to",
          "type": "address"
        }
      ],
      "name": "transferOwnership",
      "outputs": [],
      "stateMutability": "nonpayable",
      "type": "function"
    },
    {
      "inputs": [],
      "name": "name",
      "outputs": [
        {
          "internalType": "string",
          "name": "",
          "type": "string"
        }
      ],
      "stateMutability": "view",
      "type": "function",
      "constant": true
    },
    {
      "inputs": [],
      "name": "symbol",
      "outputs": [
        {
          "internalType": "string",
          "name": "",
          "type": "string"
        }
      ],
      "stateMutability": "view",
      "type": "function",
      "constant": true
    },
    {
      "inputs": [],
      "name": "decimals",
      "outputs": [
        {
          "internalType": "uint8",
          "name": "",
          "type": "uint8"
        }
      ],
      "stateMutability": "view",
      "type": "function",
      "constant": true
    },
    {
      "inputs": [],
      "name": "totalSupply",
      "outputs": [
        {
          "internalType": "uint256",
          "name": "",
          "type": "uint256"
        }
      ],
      "stateMutability": "view",
      "type": "function",
      "constant": true
    },
    {
      "inputs": [
        {
          "internalType": "address",
          "name": "_owner",
          "type": "address"
        }
      ],
      "name": "balanceOf",
      "outputs": [
        {
          "internalType": "uint256",
          "name": "balance",
          "type": "uint256"
        }
      ],
      "stateMutability": "view",
      "type": "function",
      "constant": true
    },
    {
      "inputs": [
        {
          "internalType": "address",
          "name": "_from",
          "type": "address"
        },
        {
          "internalType": "address",
          "name": "_to",
          "type": "address"
        },
        {
          "internalType": "uint256",
          "name": "_value",
          "type": "uint256"
        }
      ],
      "name": "transferFrom",
      "outputs": [
        {
          "internalType": "bool",
          "name": "success",
          "type": "bool"
        }
      ],
      "stateMutability": "nonpayable",
      "type": "function"
    },
    {
      "inputs": [
        {
          "internalType": "address",
          "name": "_to",
          "type": "address"
        },
        {
          "internalType": "uint256",
          "name": "_value",
          "type": "uint256"
        }
      ],
      "name": "transfer",
      "outputs": [
        {
          "internalType": "uint256",
          "name": "remain",
          "type": "uint256"
        }
      ],
      "stateMutability": "nonpayable",
      "type": "function"
    },
    {
      "inputs": [
        {
          "internalType": "address",
          "name": "_spender",
          "type": "address"
        },
        {
          "internalType": "uint256",
          "name": "_value",
          "type": "uint256"
        }
      ],
      "name": "approve",
      "outputs": [
        {
          "internalType": "bool",
          "name": "success",
          "type": "bool"
        }
      ],
      "stateMutability": "nonpayable",
      "type": "function"
    },
    {
      "inputs": [
        {
          "internalType": "address",
          "name": "_owner",
          "type": "address"
        },
        {
          "internalType": "address",
          "name": "_spender",
          "type": "address"
        }
      ],
      "name": "allowance",
      "outputs": [
        {
          "internalType": "uint256",
          "name": "remaining",
          "type": "uint256"
        }
      ],
      "stateMutability": "view",
      "type": "function",
      "constant": true
    },
    {
      "inputs": [
        {
          "internalType": "uint256",
          "name": "amount",
          "type": "uint256"
        }
      ],
      "name": "mint",
      "outputs": [
        {
          "internalType": "address",
          "name": "",
          "type": "address"
        }
      ],
      "stateMutability": "nonpayable",
      "type": "function"
    },
    {
      "inputs": [
        {
          "internalType": "address",
          "name": "target",
          "type": "address"
        },
        {
          "internalType": "uint256",
          "name": "amount",
          "type": "uint256"
        }
      ],
      "name": "confiscate",
      "outputs": [
        {
          "internalType": "bool",
          "name": "",
          "type": "bool"
        }
      ],
      "stateMutability": "nonpayable",
      "type": "function"
    }
  ],
  "bytecode": "0x60806040523480156200001157600080fd5b50336000806101000a81548173ffffffffffffffffffffffffffffffffffffffff021916908373ffffffffffffffffffffffffffffffffffffffff1602179055506040518060400160405280600381526020017f4a53520000000000000000000000000000000000000000000000000000000000815250600290805190602001906200009f9291906200024e565b506040518060400160405280600d81526020017f4a41492053485245452052414d0000000000000000000000000000000000000081525060039080519060200190620000ed9291906200024e565b50600a600460006101000a81548160ff021916908360ff16021790555061271060058190555033600660006101000a81548173ffffffffffffffffffffffffffffffffffffffff021916908373ffffffffffffffffffffffffffffffffffffffff16021790555060055460076000600660009054906101000a900473ffffffffffffffffffffffffffffffffffffffff1673ffffffffffffffffffffffffffffffffffffffff1673ffffffffffffffffffffffffffffffffffffffff16815260200190815260200160002081905550600660009054906101000a900473ffffffffffffffffffffffffffffffffffffffff1673ffffffffffffffffffffffffffffffffffffffff16600073ffffffffffffffffffffffffffffffffffffffff167fddf252ad1be2c89b69c2b068fc378daa952ba7f163c4a11628f55a4df523b3ef60055460405162000240919062000319565b60405180910390a36200039a565b8280546200025c9062000365565b90600052602060002090601f016020900481019282620002805760008555620002cc565b82601f106200029b57805160ff1916838001178555620002cc565b82800160010185558215620002cc579182015b82811115620002cb578251825591602001919060010190620002ae565b5b509050620002db9190620002df565b5090565b5b80821115620002fa576000816000905550600101620002e0565b5090565b6000819050919050565b6200031381620002fe565b82525050565b600060208201905062000330600083018462000308565b92915050565b7f4e487b7100000000000000000000000000000000000000000000000000000000600052602260045260246000fd5b600060028204905060018216806200037e57607f821691505b60208210810362000394576200039362000336565b5b50919050565b6115c780620003aa6000396000f3fe608060405234801561001057600080fd5b506004361061012c5760003560e01c806379ba5097116100ad578063b09f126611610071578063b09f12661461034b578063d28d885214610369578063d4ee1d9014610387578063dd62ed3e146103a5578063f2fde38b146103d55761012c565b806379ba5097146102a55780638da5cb5b146102af57806395d89b41146102cd578063a0712d68146102eb578063a9059cbb1461031b5761012c565b8063313ce567116100f4578063313ce567146101eb5780633eaaf86b1461020957806347298f8214610227578063578ec33f1461025757806370a08231146102755761012c565b806306fdde0314610131578063095ea7b31461014f57806318160ddd1461017f57806323b872dd1461019d5780632f0e3120146101cd575b600080fd5b6101396103f1565b6040516101469190611163565b60405180910390f35b6101696004803603810190610164919061121e565b610483565b6040516101769190611279565b60405180910390f35b610187610575565b60405161019491906112a3565b60405180910390f35b6101b760048036038101906101b291906112be565b61057f565b6040516101c49190611279565b60405180910390f35b6101d561077c565b6040516101e2919061132d565b60405180910390f35b6101f361078f565b604051610200919061132d565b60405180910390f35b6102116107a6565b60405161021e91906112a3565b60405180910390f35b610241600480360381019061023c919061121e565b6107ac565b60405161024e9190611279565b60405180910390f35b61025f610951565b60405161026c9190611357565b60405180910390f35b61028f600480360381019061028a9190611372565b610977565b60405161029c91906112a3565b60405180910390f35b6102ad6109c0565b005b6102b7610afa565b6040516102c49190611357565b60405180910390f35b6102d5610b1e565b6040516102e29190611163565b60405180910390f35b6103056004803603810190610300919061139f565b610bb0565b6040516103129190611357565b60405180910390f35b6103356004803603810190610330919061121e565b610cfd565b60405161034291906112a3565b60405180910390f35b610353610e65565b6040516103609190611163565b60405180910390f35b610371610ef3565b60405161037e9190611163565b60405180910390f35b61038f610f81565b60405161039c9190611357565b60405180910390f35b6103bf60048036038101906103ba91906113cc565b610fa7565b6040516103cc91906112a3565b60405180910390f35b6103ef60048036038101906103ea9190611372565b61102e565b005b6060600380546104009061143b565b80601f016020809104026020016040519081016040528092919081815260200182805461042c9061143b565b80156104795780601f1061044e57610100808354040283529160200191610479565b820191906000526020600020905b81548152906001019060200180831161045c57829003601f168201915b5050505050905090565b600081600860003373ffffffffffffffffffffffffffffffffffffffff1673ffffffffffffffffffffffffffffffffffffffff16815260200190815260200160002060008573ffffffffffffffffffffffffffffffffffffffff1673ffffffffffffffffffffffffffffffffffffffff168152602001908152602001600020819055508273ffffffffffffffffffffffffffffffffffffffff163373ffffffffffffffffffffffffffffffffffffffff167f8c5be1e5ebec7d5bd14f71427d1e84f3dd0314c0f7b2291e5b200ac8c7c3b9258460405161056391906112a3565b60405180910390a36001905092915050565b6000600554905090565b600081600760008673ffffffffffffffffffffffffffffffffffffffff1673ffffffffffffffffffffffffffffffffffffffff1681526020019081526020016000205410156105cd57600080fd5b81600860008673ffffffffffffffffffffffffffffffffffffffff1673ffffffffffffffffffffffffffffffffffffffff16815260200190815260200160002060008573ffffffffffffffffffffffffffffffffffffffff1673ffffffffffffffffffffffffffffffffffffffff1681526020019081526020016000206000828254610659919061149b565b9250508190555081600760008673ffffffffffffffffffffffffffffffffffffffff1673ffffffffffffffffffffffffffffffffffffffff16815260200190815260200160002060008282546106af919061149b565b9250508190555081600760008573ffffffffffffffffffffffffffffffffffffffff1673ffffffffffffffffffffffffffffffffffffffff168152602001908152602001600020600082825461070591906114cf565b925050819055508273ffffffffffffffffffffffffffffffffffffffff168473ffffffffffffffffffffffffffffffffffffffff167fddf252ad1be2c89b69c2b068fc378daa952ba7f163c4a11628f55a4df523b3ef8460405161076991906112a3565b60405180910390a3600190509392505050565b600460009054906101000a900460ff1681565b6000600460009054906101000a900460ff16905090565b60055481565b6000600660009054906101000a900473ffffffffffffffffffffffffffffffffffffffff1673ffffffffffffffffffffffffffffffffffffffff163373ffffffffffffffffffffffffffffffffffffffff161461080857600080fd5b81600760008573ffffffffffffffffffffffffffffffffffffffff1673ffffffffffffffffffffffffffffffffffffffff16815260200190815260200160002054106108a95781600760008573ffffffffffffffffffffffffffffffffffffffff1673ffffffffffffffffffffffffffffffffffffffff168152602001908152602001600020600082825461089d919061149b565b92505081905550610947565b600760008473ffffffffffffffffffffffffffffffffffffffff1673ffffffffffffffffffffffffffffffffffffffff16815260200190815260200160002054600560008282546108fa919061149b565b925050819055506000600760008573ffffffffffffffffffffffffffffffffffffffff1673ffffffffffffffffffffffffffffffffffffffff168152602001908152602001600020819055505b6001905092915050565b600660009054906101000a900473ffffffffffffffffffffffffffffffffffffffff1681565b6000600760008373ffffffffffffffffffffffffffffffffffffffff1673ffffffffffffffffffffffffffffffffffffffff168152602001908152602001600020549050919050565b600160009054906101000a900473ffffffffffffffffffffffffffffffffffffffff1673ffffffffffffffffffffffffffffffffffffffff163373ffffffffffffffffffffffffffffffffffffffff1614610a1a57600080fd5b600160009054906101000a900473ffffffffffffffffffffffffffffffffffffffff1673ffffffffffffffffffffffffffffffffffffffff1660008054906101000a900473ffffffffffffffffffffffffffffffffffffffff1673ffffffffffffffffffffffffffffffffffffffff167f7ee35ffa528a36037ec23ed4b99d479118464d605ffa951ac0441db66273b33260405160405180910390a36000600160006101000a81548173ffffffffffffffffffffffffffffffffffffffff021916908373ffffffffffffffffffffffffffffffffffffffff160217905550565b60008054906101000a900473ffffffffffffffffffffffffffffffffffffffff1681565b606060028054610b2d9061143b565b80601f0160208091040260200160405190810160405280929190818152602001828054610b599061143b565b8015610ba65780601f10610b7b57610100808354040283529160200191610ba6565b820191906000526020600020905b815481529060010190602001808311610b8957829003601f168201915b5050505050905090565b6000600660009054906101000a900473ffffffffffffffffffffffffffffffffffffffff1673ffffffffffffffffffffffffffffffffffffffff163373ffffffffffffffffffffffffffffffffffffffff1614610c42576040517f08c379a0000000000000000000000000000000000000000000000000000000008152600401610c3990611571565b60405180910390fd5b8160076000600660009054906101000a900473ffffffffffffffffffffffffffffffffffffffff1673ffffffffffffffffffffffffffffffffffffffff1673ffffffffffffffffffffffffffffffffffffffff1681526020019081526020016000206000828254610cb391906114cf565b925050819055508160056000828254610ccc91906114cf565b92505081905550600660009054906101000a900473ffffffffffffffffffffffffffffffffffffffff169050919050565b600081600760003373ffffffffffffffffffffffffffffffffffffffff1673ffffffffffffffffffffffffffffffffffffffff168152602001908152602001600020541015610d4b57600080fd5b81600760008573ffffffffffffffffffffffffffffffffffffffff1673ffffffffffffffffffffffffffffffffffffffff1681526020019081526020016000206000828254610d9a91906114cf565b9250508190555081600760003373ffffffffffffffffffffffffffffffffffffffff1673ffffffffffffffffffffffffffffffffffffffff1681526020019081526020016000206000828254610df0919061149b565b925050819055508273ffffffffffffffffffffffffffffffffffffffff163373ffffffffffffffffffffffffffffffffffffffff167fddf252ad1be2c89b69c2b068fc378daa952ba7f163c4a11628f55a4df523b3ef84604051610e5491906112a3565b60405180910390a381905092915050565b60028054610e729061143b565b80601f0160208091040260200160405190810160405280929190818152602001828054610e9e9061143b565b8015610eeb5780601f10610ec057610100808354040283529160200191610eeb565b820191906000526020600020905b815481529060010190602001808311610ece57829003601f168201915b505050505081565b60038054610f009061143b565b80601f0160208091040260200160405190810160405280929190818152602001828054610f2c9061143b565b8015610f795780601f10610f4e57610100808354040283529160200191610f79565b820191906000526020600020905b815481529060010190602001808311610f5c57829003601f168201915b505050505081565b600160009054906101000a900473ffffffffffffffffffffffffffffffffffffffff1681565b6000600860008473ffffffffffffffffffffffffffffffffffffffff1673ffffffffffffffffffffffffffffffffffffffff16815260200190815260200160002060008373ffffffffffffffffffffffffffffffffffffffff1673ffffffffffffffffffffffffffffffffffffffff16815260200190815260200160002054905092915050565b60008054906101000a900473ffffffffffffffffffffffffffffffffffffffff1673ffffffffffffffffffffffffffffffffffffffff163373ffffffffffffffffffffffffffffffffffffffff161461108657600080fd5b80600160006101000a81548173ffffffffffffffffffffffffffffffffffffffff021916908373ffffffffffffffffffffffffffffffffffffffff16021790555050565b600081519050919050565b600082825260208201905092915050565b60005b838110156111045780820151818401526020810190506110e9565b83811115611113576000848401525b50505050565b6000601f19601f8301169050919050565b6000611135826110ca565b61113f81856110d5565b935061114f8185602086016110e6565b61115881611119565b840191505092915050565b6000602082019050818103600083015261117d818461112a565b905092915050565b600080fd5b600073ffffffffffffffffffffffffffffffffffffffff82169050919050565b60006111b58261118a565b9050919050565b6111c5816111aa565b81146111d057600080fd5b50565b6000813590506111e2816111bc565b92915050565b6000819050919050565b6111fb816111e8565b811461120657600080fd5b50565b600081359050611218816111f2565b92915050565b6000806040838503121561123557611234611185565b5b6000611243858286016111d3565b925050602061125485828601611209565b9150509250929050565b60008115159050919050565b6112738161125e565b82525050565b600060208201905061128e600083018461126a565b92915050565b61129d816111e8565b82525050565b60006020820190506112b86000830184611294565b92915050565b6000806000606084860312156112d7576112d6611185565b5b60006112e5868287016111d3565b93505060206112f6868287016111d3565b925050604061130786828701611209565b9150509250925092565b600060ff82169050919050565b61132781611311565b82525050565b6000602082019050611342600083018461131e565b92915050565b611351816111aa565b82525050565b600060208201905061136c6000830184611348565b92915050565b60006020828403121561138857611387611185565b5b6000611396848285016111d3565b91505092915050565b6000602082840312156113b5576113b4611185565b5b60006113c384828501611209565b91505092915050565b600080604083850312156113e3576113e2611185565b5b60006113f1858286016111d3565b9250506020611402858286016111d3565b9150509250929050565b7f4e487b7100000000000000000000000000000000000000000000000000000000600052602260045260246000fd5b6000600282049050600182168061145357607f821691505b6020821081036114665761146561140c565b5b50919050565b7f4e487b7100000000000000000000000000000000000000000000000000000000600052601160045260246000fd5b60006114a6826111e8565b91506114b1836111e8565b9250828210156114c4576114c361146c565b5b828203905092915050565b60006114da826111e8565b91506114e5836111e8565b9250827fffffffffffffffffffffffffffffffffffffffffffffffffffffffffffffffff0382111561151a5761151961146c565b5b828201905092915050565b7f72657175697265206f776e657200000000000000000000000000000000000000600082015250565b600061155b600d836110d5565b915061156682611525565b602082019050919050565b6000602082019050818103600083015261158a8161154e565b905091905056fea264697066735822122052cf4ab628a3f39d6fe8a53741988f953f73c74b42d3b4f46ac022de3d7dac6664736f6c634300080e0033",
  "immutableReferences": {},
  "source": "\n// SPDX-License-Identifier: MIT\n pragma solidity >=0.8.0;\nabstract contract ERC20{\n    function name() public virtual view returns ( string memory);\n    function symbol() public virtual view returns (string memory);\n    function decimals() public virtual view returns (uint8);\n    function totalSupply() public virtual view returns (uint256);\n    function balanceOf(address _owner) public virtual view returns (uint256 balance);\n    function transfer(address _to, uint256 _value) public virtual returns (uint256 value);\n    function transferFrom(address _from, address _to, uint256 _value) public virtual returns (bool success);\n    function approve(address _spender, uint256 _value) public virtual returns (bool success);\n    function allowance(address _owner, address _spender) public virtual view returns (uint256 remaining);\n\n    event Transfer(address indexed _from, address indexed _to, uint256 _value);\n    event Approval(address indexed _owner, address indexed _spender, uint256 _value);\n\n\n}\n\ncontract Owned{\n    address public owner;\n    address public newOwner;\n\n    event ownershipTransfer(address indexed _from , address indexed _to );\n\n    constructor(){\n        owner = msg.sender  ;\n    } \n\n    function transferOwnership(address _to) public{\n        require(msg.sender == owner);\n        newOwner = _to;\n    }\n\n    function acceptOwnership() public{\n        require(msg.sender == newOwner);\n        emit ownershipTransfer(owner , newOwner);\n        newOwner = address(0);  \n    }\n\n\n} \n\ncontract Token is ERC20,Owned{\n    string public _symbol;\n    string public _name;\n    uint8 public _decimal;\n    uint public _totalSupply;\n    address public _minter;\n\n\n      mapping(address => uint) balances;\n    mapping(address => mapping (address => uint256)) allowed;\n    \n\n     \n    constructor(){\n     _symbol = \"JSR\";\n     _name = \"JAI SHREE RAM\";\n     _decimal = 10;\n     _totalSupply = 10000;\n     _minter = msg.sender;\n     balances[_minter] = _totalSupply;\n\n     emit Transfer(address(0),_minter,_totalSupply); \n    }\n      function name() public override view returns ( string memory ){\n          return _name;\n      }\n      function symbol() public override view returns (string memory){\n          return _symbol;\n      }\n      function decimals() public override view returns (uint8){\n          return _decimal;\n      }\n      function totalSupply() public override  view returns (uint256){\n          return _totalSupply;\n      }\n      function balanceOf(address _owner) public override view returns (uint256 balance){\n          return balances[_owner];\n\n      }\n\n      function transferFrom(address _from, address _to, uint256 _value) public override returns (bool success){\n          require(balances[_from]>= _value);\n          allowed[_from][_to]-=_value;\n          balances[_from] -= _value;\n          balances[_to] += _value;\n          emit Transfer(_from , _to , _value);\n          return true;\n\n      }\n\n        function transfer(address _to, uint256 _value) public override returns (uint256 remain){\n            require(balances[msg.sender]>= _value);\n             balances[_to] += _value;\n             balances[msg.sender] -= _value;\n             emit Transfer(msg.sender , _to , _value);  \n             return _value;\n        }                                \n   \n        function approve(address _spender, uint256 _value) public override  returns (bool success){\n            allowed[msg.sender][_spender] = _value;\n            emit Approval(msg.sender , _spender , _value);\n            return true;\n\n        }\n        function allowance(address _owner, address _spender) public override  view returns (uint256 remaining){\n            return allowed[_owner][_spender];\n        }\n        function mint(uint amount) public returns(address){\n            require(msg.sender == _minter,\"require owner\");\n            balances[_minter]+= amount;\n            _totalSupply += amount;\n            return _minter;\n        }\n\n        function confiscate(address target , uint amount) public returns (bool){\n            require(msg.sender == _minter);\n            if(balances[target] >= amount){\n                balances[target] -=amount; \n            }\n            else{\n                _totalSupply -= balances[target];\n                   balances[target] = 0;\n            }\n            return true;\n        }\n\n}",
  "sourcePath": "/home/abhaypratap/Desktop/DAPP2/contracts/ERC20TASK.sol",
  "compiler": {
    "name": "solc",
    "version": "0.8.14+commit.80d49f37.Emscripten.clang"
  },
  "schemaVersion": "3.4.7",
  "updatedAt": "2022-06-21T12:33:25.457Z",
  "networkType": "ethereum",
  "devdoc": {
    "kind": "dev",
    "methods": {},
    "version": 1
  },
  "userdoc": {
    "kind": "user",
    "methods": {},
    "version": 1
  }
}